S01A00007465737450726F636573736F724578706572742E733139E2
S113000000300020A90400002D0500003505000083
S113001035050000350500003505000035050000F4
S113002035050000350500003505000035050000E4
S113003035050000350500003505000035050000D4
S113004035050000350500003505000035050000C4
S113005035050000350500003505000035050000B4
S113006035050000350500003505000035050000A4
S11300703505000035050000350500003505000094
S11300803505000035050000350500003505000084
S11300903505000035050000350500003505000074
S11300A03505000035050000350500003505000064
S11300B03505000035050000350500003505000054
S1130400FFFFFFFFFFFFFFFFFFFFFFFF7EFFFFFF79
S11304107047C0467047C04630B588421CD0002A99
S11304201AD00323012508E0034208D1032A06D980
S113043010C9043A10C0002A0ED00B42F4D00D4269
S11304400BD1054209D1012A07D90C88023A04804C
S113045002310230002AF0D130BD0C78013A047028
S113046001310130E7E7C04638B50B4D0024286858
S1130470002807D10FE09A68002A0CD0FFF7CCFFC0
S113048028680C34031919685868002901D1002818
S1130490F1D09A68F2E738BDC40600007047C04640
S11304A07047C0467047C04638B5FFF7F7FF00F005
S11304B043F8184B181C002805D0854681B000204D
S11304C0C043009001B0144B144AD21A08D1FFF76C
S11304D0CBFFFFF7E7FF0020114900F0DBF8FEE750
S11304E0032501240020291C194006D1032A04D91C
S11304F002C3043A002AF6D1E9E7211C194005D1C8
S1130500012A03D91980023A0233F3E71870013A39
S11305100133EFE70030002000F0FF1F30F0FF1F31
S113052000F0FF1F08B5FFF7BFFFC04608B5FFF78F
S11305306FFF08BDFFBE70471C4B1D4A1D4910B517
S11305408820D1501C4B002244011C491A515C588C
S1130550802080002043585019491A485A501A499B
S11305605C58204058501C68C02000032043186089
S11305705C58164820408024640420435850144991
S113058006230B704A70CC781F200440114BCC70AA
S113059080241C700A714A71102288790242FCD0AE
S11305A00B490C248B791C42FCD110BD080D0000B2
S11305B000E000E00000000000700440381000007B
S11305C044100000FFFFFEFF04100000FFFFFFFCCB
S11305D00040064000500640194A1A48136930B5D5
S11305E0E0210340C9000B431361174B1F255C79BD
S11305F0AC435C711C790725AC431C71134B732508
S11306001C78AC4350252C431C705C786325AC43A8
S113061040252C435C709C781925AC439C700C4B92
S113062000241C70156D284001431165C120094A3E
S11306308400135908491940115162B630BDC046AF
S113064000900440FFF8FFFE00F0074000D0074090
S113065000E0074000E100E0FFFF00FF10B5002AC2
S113066013D08218C343D3180124017001302340EE
S113067090420AD0002B03D001700130904204D084
S11306800170417002309042FAD110BD00207047D1
S11306907047C04608B5FFF79FFFFEE70000400122
S11306A00000400100000000000000000000000005
S11306B0000040010080000000000000E80300008A
S10706C000400000F2
S11306C4C406000000F0FF1F00000000000000004A
S10B06D400000000000000001A
S90304A94F
